:100000000C9463000C944A0F0C94230F0C948B00F7
:100010000C948B000C948B000C948B000C948B0034
:100020000C948B000C948B000C948B000C948B0024
:100030000C948B000C948B000C948B000C948B0014
:100040000C94D90E0C948B000C94890D0C94630DB8
:100050000C948B000C948B000C948B000C948B00F4
:100060000C948B000C948B000000000023002600F1
:10007000290000000008000201000003040700003E
:10008000000000000000010204081020408001026E
:1000900004081020010204081020000000002500C0
:1000A00028002B00040404040404040402020202D5
:1000B00002020303030303030000000024002700DF
:1000C0002A0099105B1211241FBECFEFD8E0DEBFCB
:1000D000CDBF11E0A0E0B1E0ECEBFCE202C0059086
:1000E0000D92A437B107D9F722E0A4E7B1E001C02F
:1000F0001D92AE39B207E1F710E0C2E6D0E004C0CD
:100100002197FE010E94C012C136D107C9F70E9493
:1001100037110C9451160C940000CF92DF92EF929D
:10012000FF920F931F930E947A0E0091C8011091C5
:10013000C9012091CA013091CB016B017C01C01A29
:10014000D10AE20AF30AC0928102D0928202E092BE
:100150008302F09284026093C8017093C901809376
:10016000CA019093CB0185E090E09093C701809302
:10017000C6011F910F91FF90EF90DF90CF900895EF
:10018000EF92FF920F931F93CF93DF931F92CDB700
:10019000DEB77C01FC0100811181C80169830E94E6
:1001A0003B166981681719F0C8010E944316C70100
:1001B0000F90DF91CF911F910F91FF90EF900895D5
:1001C000EF92FF920F931F93CF93DF9300D0CDB7A1
:1001D000DEB72FB7F89480918B0290918C02A0919A
:1001E0008D02B0918E022FBF4091C0015091C1018C
:1001F0006091C2017091C301841B950BA60BB70BD4
:100200008897A105B10508F42DC42FB7F894809103
:100210008B0290918C02A0918D02B0918E022FBF23
:100220008093C0019093C101A093C201B093C30118
:100230000E943F0D182F80910001813059F4111157
:100240000FC48DE191E00E94540A1092BF011092F8
:10025000BE0106C48111CDC3113009F0CAC380911B
:10026000BE019091BF01803A91050CF46BC087E20A
:1002700091E00E94540A8AEF8093CE010E94BA0F47
:100280000AEF6091CE016A506093CE0170E080E089
:1002900090E04AE00E94620A81E391E00E94420AF3
:1002A0000E94BA0F8091CE01811102C00093CE014D
:1002B0000E943F0D019729F36091CE018CE690E0FA
:1002C0009A838983CE0101960E94C0000E94020A8F
:1002D0008091CE010E94D00C6091CE0170E080E050
:1002E00090E04AE00E94620A81E391E00E94420AA3
:1002F0000E94750B81E090E02091C4013091C5010E
:10030000232B11F080E090E09093C5018093C4010D
:100310006CED75E080E090E00E949F0E1092BF01AE
:100320001092BE010E943B0581E090E02091C40143
:100330003091C501232B11F080E090E09093C5012E
:100340008093C4018091BE019091BF0184569109B0
:10035000CC9708F022C18CE291E00E94540A83E01D
:1003600090E09093B5018093B4019093CD01809378
:10037000CC010E941D0A0E940B0A84E391E00E94B6
:10038000540A8091CC019091CD010E94110D0E94E0
:10039000970F68EC70E080E090E00E949F0E40E0D4
:1003A00050E06FEF70E080E090E00E94340C40E09D
:1003B00050E06FEF70E081E090E00E94340C0E940A
:1003C000750B68EC70E080E090E00E949F0E0E9448
:1003D000970F68EC70E080E090E00E949F0E40E094
:1003E00050E06FEF70E080E090E00E94340C40E05D
:1003F00050E06FEF70E081E090E00E94340C0E94CA
:10040000750B68EC70E080E090E00E949F0E0E9407
:10041000970F68EC70E080E090E00E949F0E40E053
:1004200050E06FEF70E080E090E00E94340C40E01C
:1004300050E06FEF70E081E090E00E94340C0E9489
:10044000750B94E5E92EF12C0E943F0D019729F4DC
:10045000F0928A02E0928902F7CF0E9452100E9425
:10046000041040E050E06FEF70E082E090E00E9406
:10047000340C40E050E06FEF70E083E090E00E94C9
:10048000340C0E94750B88E5E82EF12C0E943F0D7C
:10049000019729F4F0928A02E0928902F7CF0E9434
:1004A00052100E94041040E050E06FEF70E084E0D2
:1004B00090E00E94340C40E050E06FEF70E085E087
:1004C00090E00E94340C0E94750B0CE5E02EF12C9C
:1004D0000E943F0D019729F4F0928A02E09289026E
:1004E000F7CF0E9452100E940410E12CF12C40E042
:1004F0005FEF60E070E0C7010E94340C8FEFE81AF4
:10050000F80A86E0E816F10491F70E94750BB4E64C
:10051000EB2EF12C0E943F0D019729F4F0928A02F4
:10052000E0928902F7CF0E9452100E940410E12C41
:10053000F12C4FEF50E060E070E0C7010E94340CF6
:100540008FEFE81AF80A86E0E816F10491F70E94A6
:10055000750BA8E6EA2EF12C0E943F0D019729F4B5
:10056000F0928A02E0928902F7CF0E9452100E9414
:10057000041081E090E02091C4013091C501232B4B
:1005800011F080E090E09093C5018093C40168EE83
:1005900073E080E090E00E949F0E8091BE019091F8
:1005A000BF01843691050CF05BC2CC970CF4F2C00D
:1005B00082E491E00E94540A82E090E09093B501B9
:1005C0008093B4019093CD018093CC010E941D0AC9
:1005D0000E940B0A84E391E00E94540A8091CC01AE
:1005E0009091CD010E94110D0E94970F68EC70E070
:1005F00080E090E00E949F0E40E050E06FEF70E0DE
:1006000082E090E00E94340C40E050E06FEF70E038
:1006100083E090E00E94340C0E94750B68EC70E05F
:1006200080E090E00E949F0E0E94970F68EC70E0BF
:1006300080E090E00E949F0E40E050E06FEF70E09D
:1006400082E090E00E94340C40E050E06FEF70E0F8
:1006500083E090E00E94340C0E94750B68EC70E01F
:1006600080E090E00E949F0E0E94970F68EC70E07F
:1006700080E090E00E949F0E40E050E06FEF70E05D
:1006800082E090E00E94340C40E050E06FEF70E0B8
:1006900083E090E00E94340C0E94750BF8E3EF2E8B
:1006A000F12C0E943F0D019729F4F0928A02E0920A
:1006B0008902F7CF0E9452100E94041040E050E0DF
:1006C0006FEF70E081E090E00E94340C40E050E079
:1006D0006FEF70E084E090E00E94340C0E94750B94
:1006E000ECE3EE2EF12C0E943F0D019729F4F092DD
:1006F0008A02E0928902F7CF0E9452100E940410F1
:1007000040E05FEF60E070E080E090E00E94340C39
:1007100040E05FEF60E070E085E090E00E94340C24
:100720000E94750B70E4E72EF12C0E943F0D01979B
:1007300029F4F0928A02E0928902F7CF0E945210C7
:100740000E940410E12CF12C4FEF50E060E070E0CB
:10075000C7010E94340C8FEFE81AF80A86E0E81609
:10076000F10491F70E94750B0E943F0D019739F437
:100770006AEF70E080E090E00E949F0EF5CF88E481
:1007800090E090938A02809389020E9452100E9406
:1007900004101AC189E491E00E94540A81E090E0BB
:1007A0009093B5018093B4019093CD018093CC01D7
:1007B0000E941D0A0E940B0A8091CC019091CD01EC
:1007C0000E949F0C0E94970F68EC70E080E090E020
:1007D0000E949F0E40E050E06FEF70E080E090E0FC
:1007E0000E94340C0E94750B68EC70E080E090E091
:1007F0000E949F0E0E94970F68EC70E080E090E0EE
:100800000E949F0E40E050E06FEF70E080E090E0CB
:100810000E94340C0E94750B68EC70E080E090E060
:100820000E949F0E0E94970F68EC70E080E090E0BD
:100830000E949F0E40E050E06FEF70E080E090E09B
:100840000E94340C0E94750B64E1E62EF12C0E948C
:100850003F0D019729F4F0928A02E0928902F7CFC6
:100860000E9452100E94041040E050E06FEF70E0D0
:1008700081E090E00E94340C0E94750B58E1E52E57
:10088000F12C0E943F0D019729F4F0928A02E09228
:100890008902F7CF0E9452100E94041040E050E0FD
:1008A0006FEF70E082E090E00E94340C0E94750BC4
:1008B0004CE1E42EF12C0E943F0D019729F4F092B7
:1008C0008A02E0928902F7CF0E9452100E9404101F
:1008D00040E050E06FEF70E083E090E00E94340C65
:1008E0000E94750B30E2E32EF12C0E943F0D019720
:1008F00029F4F0928A02E0928902F7CF0E94521006
:100900000E94041040E050E06FEF70E084E090E05F
:100910000E94340C0E94750B24E2E22EF12C0E94FE
:100920003F0D019729F4F0928A02E0928902F7CFF5
:100930000E9452100E94041040E05FEF60E070E0FF
:1009400085E090E00E94340C0E94750B98E2E92E3D
:10095000F12C0E943F0D019729F4F0928A02E09257
:100960008902F7CF0E9452100E940410E12CF12C52
:100970004FEF50E060E070E0C7010E94340C8FEF51
:10098000E81AF80A86E0E816F10491F70E94750B60
:1009900084E3E82EF12C0E943F0D019729F4F09298
:1009A0008A02E0928902F7CF0E9452100E9404103E
:1009B0000E940B0A84E391E00E94540A8091CC01CA
:1009C0009091CD010E94110D81E090E02091C40131
:1009D0003091C501232B11F080E090E09093C50188
:1009E0008093C40168EE73E080E090E00E949F0E67
:1009F00037C0111135C08091BE019091BF010196A1
:100A00009093BF018093BE016091C0017091C101BC
:100A10008091C2019091C3010E94E0132091BA011C
:100A20003091BB014091BC015091BD010E94C612A2
:100A300020E030E04AE754E40E9438136093B601A6
:100A40007093B7018093B8019093B90142E050E0F0
:100A50000E94A30A8091BE019091BF010E949F0C49
:100A6000109300010F900F90DF91CF911F910F9184
:100A7000FF90EF900895CF92DF92EF92FF92CF9385
:100A8000DF938091C6019091C701892B09F4E0C3DF
:100A90008091C6019091C70101979093C7018093FF
:100AA000C6016091810270918202809183029091CF
:100AB00084020E94E0139B01AC0160EC71EE84E6BD
:100AC0009CE40E94381360938502709386028093A1
:100AD0008702909388020E940B0A84E391E00E94AF
:100AE000540A8091CC019091CD010E949F0C80917D
:100AF000CC019091CD019093B5018093B4018130E8
:100B0000910509F0EFC0C0908502D0908602E09078
:100B10008702F090880220E030E0A901C701B60109
:100B20000E94921487FD15C02091B0013091B1014F
:100B30004091B2015091B301C701B6010E94331335
:100B400018163CF040E050E0BA0180E090E00E94CE
:100B5000340C2091B0013091B1014091B20150911B
:100B6000B301609185027091860280918702909115
:100B700088020E94921487FD05C040E050E06FEFAC
:100B800070E003C040E050E0BA0180E090E00E94D5
:100B9000340C2091AC013091AD014091AE015091E7
:100BA000AF016091850270918602809187029091D9
:100BB00088020E94921487FD05C040E050E06FEF6C
:100BC00070E003C040E050E0BA0181E090E00E9494
:100BD000340C2091A8013091A9014091AA015091B3
:100BE000AB0160918502709186028091870290919D
:100BF00088020E94921487FD05C040E050E06FEF2C
:100C000070E003C040E050E0BA0182E090E00E9452
:100C1000340C2091A4013091A5014091A60150917E
:100C2000A701609185027091860280918702909160
:100C300088020E94921487FD05C040E050E06FEFEB
:100C400070E003C040E050E0BA0183E090E00E9411
:100C5000340C2091A0013091A1014091A20150914A
:100C6000A301609185027091860280918702909124
:100C700088020E94921487FD05C040E050E06FEFAB
:100C800070E003C040E050E0BA0184E090E00E94D0
:100C9000340C20919C0130919D0140919E01509116
:100CA0009F016091850270918602809187029091E8
:100CB00088020E94921487FD05C040E05FEF60E06B
:100CC00070E003C040E050E0BA0185E090E00E948F
:100CD000340C209198013091990140919A015091E2
:100CE0009B01D9C18230910509F0D0C040E050E0AD
:100CF000BA0180E090E00E94340C20919401309180
:100D000095014091960150919701609185027091F3
:100D1000860280918702909188020E94921487FF38
:100D200004C040E050E0BA0104C040E050E06FEF82
:100D300070E082E090E00E94340C209194013091A8
:100D400095014091960150919701609185027091B3
:100D5000860280918702909188020E94921487FFF8
:100D600004C040E050E0BA0104C040E050E06FEF42
:100D700070E083E090E00E94340C2091900130916B
:100D8000910140919201509193016091850270917F
:100D9000860280918702909188020E94921487FFB8
:100DA00004C040E050E0BA0104C040E050E06FEF02
:100DB00070E081E090E00E94340C2091900130912D
:100DC000910140919201509193016091850270913F
:100DD000860280918702909188020E94921487FF78
:100DE00004C040E050E0BA0104C040E050E06FEFC2
:100DF00070E084E090E00E94340C20918C013091EE
:100E00008D0140918E0150918F016091850270910A
:100E1000860280918702909188020E94921487FF37
:100E200004C040E050E0BA0104C040E05FEF60E081
:100E300070E080E090E00E94340C20918C013091B1
:100E40008D0140918E0150918F01609185027091CA
:100E5000860280918702909188020E94921487FFF7
:100E600004C040E050E0BA0104C040E05FEF60E041
:100E700070E085E090E00E94340C20918801309170
:100E8000890140918A0150918B0105C1039709F0B6
:100E900023C140E050E0BA0180E090E00E94340CB1
:100EA0002091840130918501409186015091870104
:100EB00060918502709186028091870290918802EC
:100EC0000E94921487FF04C040E050E0BA0104C0C1
:100ED00040E050E06FEF70E080E090E00E94340C62
:100EE00020918401309185014091860150918701C4
:100EF00060918502709186028091870290918802AC
:100F00000E94921487FF04C040E050E0BA0104C080
:100F100040E050E06FEF70E081E090E00E94340C20
:100F20002091800130918101409182015091830193
:100F3000609185027091860280918702909188026B
:100F40000E94921487FF04C040E050E0BA0104C040
:100F500040E050E06FEF70E082E090E00E94340CDF
:100F60002091800130918101409182015091830153
:100F7000609185027091860280918702909188022B
:100F80000E94921487FF04C040E050E0BA0104C000
:100F900040E050E06FEF70E083E090E00E94340C9E
:100FA00020917C0130917D0140917E0150917F0123
:100FB00060918502709186028091870290918802EB
:100FC0000E94921487FF04C040E050E0BA0104C0C0
:100FD00040E050E06FEF70E084E090E00E94340C5D
:100FE00020917C0130917D0140917E0150917F01E3
:100FF00060918502709186028091870290918802AB
:101000000E94921487FF04C040E050E0BA0104C07F
:1010100040E050E06FEF70E085E090E00E94340C1B
:10102000C0908502D0908602E0908702F0908802FE
:10103000209178013091790140917A0150917B01A2
:10104000C701B6010E94921487FD1DC02091740152
:10105000309175014091760150917701C701B60139
:101060000E94331387FF0FC0C0E0D0E040E05FEF85
:1010700060E070E0CE010E94340C2196C630D105AC
:10108000A9F70E94750B2091740130917501409170
:10109000760150917701609185027091860280916E
:1010A0008702909188020E94921487FF0E94D70FB6
:1010B0000E94750B6AE070E080E090E00E949F0E55
:1010C00060918502709186028091870290918802DA
:1010D00040E050E00E94A30AC0910501D0910601B2
:1010E000BE016C507E4F072E000C880B990B0E949E
:1010F000E2139B01AC0160918502709186028091A0
:101100008702909188020E949214181674F4BE010E
:10111000DD0F880B990B0E94E21360938502709398
:101120008602809387029093880260918502709175
:10113000860280918702909188020E94AA13709380
:1011400006016093050160EB71E084E190E00E948C
:10115000710F6CEA71E088E190E00E94710F68EA1B
:1011600071E08CE190E00E94710F64EA71E080E22E
:1011700090E00E94710F60EA71E084E290E00E94CA
:10118000710F6CE971E088E290E00E94710F68E9EC
:1011900071E084E390E00E94710F64E971E088E3FC
:1011A00090E00E94710F60E971E08CE390E00E9492
:1011B000710F6CE871E080E490E00E94710F68E8C4
:1011C00071E088E490E00E94710F64E871E084E5CA
:1011D00090E00E94710F60E871E088E590E00E9465
:1011E000710F6CE771E08CE590E00E94710F68E789
:1011F00071E084E690E00E94710F64E771E088E698
:1012000090E00E94710F0E943F0D9093C501809362
:10121000C4012FB7F89460918B0270918C02809179
:101220008D0290918E022FBF0E94E0136093BA014D
:101230007093BB018093BC019093BD018091C40168
:101240009091C501892B09F01CCC0E94E000F6CFDB
:10125000DF91CF91FF90EF90DF90CF900895E091D4
:10126000CF01F091D0010190F081E02D682F8FEC3B
:1012700091E00994CF92DF92EF92FF920F931F9328
:10128000CF93DF936C017A018B01C0E0D0E0CE15E3
:10129000DF0589F0D8016D918D01D601ED91FC91AA
:1012A0000190F081E02DC6010995892B11F47E0192
:1012B00002C02196ECCFC701DF91CF911F910F9112
:1012C000FF90EF90DF90CF9008958FEC91E00E9417
:1012D000DD0D21E0892B09F420E0822F0895CF93C2
:1012E000DF93282F30E0F901EE58FF4F8491F90188
:1012F000EA57FF4FD491F901EC55FF4FC491CC232D
:1013000099F081110E94150EEC2FF0E0EE0FFF1FF7
:10131000E656FF4FA591B4918FB7F8949C91ED2FAD
:10132000E095E923EC938FBFDF91CF9108950E9460
:101330003616EF92FF920F931F93CF93DF93EC013A
:1013400081E0888F9B8D8C8D981305C0E889F98981
:10135000808185FD24C0F62E0B8D10E00F5F1F4F9E
:101360000F731127E02E8C8DE8120CC00FB607FC0E
:10137000FACFE889F989808185FFF5CFCE010E94F7
:10138000F40DF1CF8B8DFE01E80FF11DE35AFF4FF5
:10139000F0820B8FEA89FB898081806207C0EE8929
:1013A000FF896083E889F98980818064808381E096
:1013B00090E0DF91CF911F910F91FF90EF900895F2
:1013C000CF93DF93EC01888D8823C9F0EA89FB89EC
:1013D000808185FD05C0A889B9898C9186FD0FC0E3
:1013E0000FB607FCF5CF808185FFF2CFA889B989B8
:1013F0008C9185FFEDCFCE010E94F40DE7CFDF91F8
:10140000CF9108958CE690E00E943B168093CE0128
:101410008EEC91E00895CF93DF9380E590E00E94F9
:101420003B16CCECD1E0888381E590E00E943B162E
:101430008983CE01DF91CF9108950F931F93CF93AE
:10144000DF9300D0CDB7DEB70CEC11E0F80160817E
:1014500080E590E09A838983CE0101960E94C000C6
:10146000F801618181E590E09A838983CE0101963C
:101470000E94C000C8010F900F90DF91CF911F9183
:101480000F910895009769F0FC0101900020E9F7A1
:101490003197AF01481B590BBC018FEC91E00C94C4
:1014A0003A0980E090E00895CF93DF930E94420ACA
:1014B000EC0181E391E00E94420A8C0F9D1FDF91B5
:1014C000CF9108958F929F92AF92BF920F931F93E7
:1014D000CF93DF93CDB7DEB7A1970FB6F894DEBFF9
:1014E0000FBECDBF19A2423008F44AE08E010F5D55
:1014F0001F4F842E912CA12CB12CA50194010E9488
:101500007F12E62FB901CA0101501109EA3014F423
:10151000E05D01C0E95CD801EC93232B242B252B43
:1015200061F7C8010E94420AA1960FB6F894DEBF87
:101530000FBECDBFDF91CF911F910F91BF90AF90A4
:101540009F908F9008954F925F926F927F928F92AB
:101550009F92AF92BF92CF92DF92EF92FF92CF9382
:10156000DF936B017C01B42E9B01AC010E9404153A
:10157000882319F08FE491E01AC026013701E8941E
:1015800077F82FEF3FEF4FE75FE7C301B2010E940B
:101590000415811110C02FEF3FEF4FE75FE7C30144
:1015A000B2010E943313181634F483E591E00E94CF
:1015B000420AEC0185C02FEF3FEF4FE75FE4C70120
:1015C000B6010E94921418161CF487E591E0EFCF43
:1015D0002FEF3FEF4FE75FECC701B6010E943313D7
:1015E00087FDF3CF20E030E0A901C701B6010E94DA
:1015F000331387FF09C08DE20E942F09EC01F7FA2F
:10160000F094F7F8F09402C0C0E0D0E0A12C60E0C4
:1016100070E080E09FE3AB1440F420E030E040E273
:1016200051E40E943813A394F6CF9B01AC01C7018B
:10163000B6010E94C7122B013C010E94B1136B013D
:101640007C010E94E0139B01AC01C301B2010E9426
:10165000C6122B013C014AE0C701B6010E94620A92
:10166000C80FD91FBB2029F08EE20E942F09C80F96
:10167000D91FFB2CFF2021F120E030E040E251E4B3
:10168000C301B2010E9497142B013C010E94B113C7
:101690004B01A12CB12C4AE0C501B4010E94620AA1
:1016A000C80FD91FC501B4010E94E0139B01AC0112
:1016B000C301B2010E94C6122B013C01FA94DACF99
:1016C00081E391E00E94420A8C0F9D1FDF91CF9130
:1016D000FF90EF90DF90CF90BF90AF909F908F9052
:1016E0007F906F905F904F9008950F931F93CF93CB
:1016F000DF93CDB7DEB729970FB6F894DEBF0FBEE4
:10170000CDBF8091740290917502892B09F4A1C01C
:101710000E947A0E00917A0210917B0220917C0245
:1017200030917D02DC01CB01801B910BA20BB30B2E
:10173000C297A105B10560F3F89480917002909171
:1017400071029A838983E0917402F0917502DF013E
:1017500011968081898790916C02E0917E02F091D0
:101760007F0280918002992309F42EC09081982BEA
:1017700098879081809589238F838F818C8388E0DF
:101780008B8358856F8149853B812C8189819A8122
:10179000508347FD252F3A952083262F39F0441F8B
:1017A00000C000006083000000C0F2CF38E04D911F
:1017B00060830000019761F7F0937F02E0937E025F
:1017C00049873B832C8338C09081982B98879081E0
:1017D000809589238F838F818E8388E08D835885C0
:1017E0006F8149853D812E8189819A81508347FD92
:1017F000252F00C000C0208300C000C000C000C072
:1018000000C060830000262F3A9541F0441F00007D
:1018100000C000C000C000C000C0E8CF38E04D915B
:1018200000C0608300C0019709F7F0937F02E09346
:101830007E0249873D832E839A83898378940E9410
:101840007A0E60937A0270937B0280937C0290936D
:101850007D0229960FB6F894DEBF0FBECDBFDF9193
:10186000CF911F910F9108958F929F92AF92BF9247
:10187000CF92DF92EF92FF9220916E0230916F0231
:101880008217930708F052C04B01AA24BB24E82D0D
:10189000C52ED62EE72EFF24FC2D342F2091730267
:1018A000222361F0829E40011124E92DC29E600135
:1018B0001124FD2D429FD00111243B2FF09079027D
:1018C000E0907602A0917402B0917502FE1008C0FB
:1018D000AC01440F551F840F951F8A0F9B1F14C026
:1018E000880F991F880F991F8A0F9B1F472F552715
:1018F00066277727DC01AF0DB11D222321F0429F1F
:10190000A0011124452F4C9320917602DC01A20FF7
:10191000B11DEC9320917702DC01A20FB11DFC9365
:1019200020917802FC01E20FF11D3083FF90EF90CF
:10193000DF90CF90BF90AF909F908F900895CF92FF
:10194000DF92EF92FF92CF93DF936C01990FEE0835
:10195000FF08F7FE12C08DE20E942F09EC016627F6
:101960007727CB016C197D098E099F094AE00E94F7
:10197000620A7C01EC0EFD1E06C04AE0C701B601FA
:101980000E94620A7C0181E391E00E94420A8E0D6E
:101990009F1DDF91CF91FF90EF90DF90CF90089542
:1019A0001F93CF93DF9311E0180F2091730212174A
:1019B000A1F1C0917402D09175022150B9F08F3F0E
:1019C00059F430E040E050E06FEF7FEF80E090E0CE
:1019D0000E94A112B9010CC0812F90E0982F882796
:1019E0000197622F70E00E946B1202C060E070E00D
:1019F000FE014091700250917102CF018C1B9D0B32
:101A00008417950740F44081469FC001479F900D81
:101A100011249193EECF10937302DF91CF911F9118
:101A20000895CF92DF92EF92FF92CF93DF936C01F4
:101A3000990FEE08FF08F7FE17C08DE20E942F09EC
:101A4000EC0166277727CB016C197D098E099F0968
:101A50004AE00E94620A8C0F9D1FDF91CF91FF9098
:101A6000EF90DF90CF9008954AE0C701B601DF9173
:101A7000CF91FF90EF90DF90CF900C94620ACF93BC
:101A8000DF93E5E7F0E08491E9E8F0E0D491E7EA5C
:101A9000F0E0C491CC2391F081110E94150EEC2F3F
:101AA000F0E0EE0FFF1FE859FF4FA591B491EC91C4
:101AB000ED2381E090E021F480E002C080E090E03E
:101AC000DF91CF9108951F920F920FB60F921124BC
:101AD0002F933F934F935F936F937F938F939F9336
:101AE000AF93BF93EF93FF938FEC91E00E94F40DBF
:101AF000FF91EF91BF91AF919F918F917F916F91E6
:101B00005F914F913F912F910F900FBE0F901F90BB
:101B100018951F920F920FB60F9211242F938F9347
:101B20009F93EF93FF93E091DF01F091E0018081BB
:101B3000E091E501F091E60182FD12C09081809173
:101B4000E8018F5F8F732091E901821751F0E091D6
:101B5000E801F0E0E153FE4F958F8093E80101C06A
:101B60008081FF91EF919F918F912F910F900FBEE8
:101B70000F901F901895FC01918D828D981761F040
:101B8000828DDF01A80FB11D5D968C91928D9F5FB4
:101B90009F73928F90E008958FEF9FEF0895FC015F
:101BA000918D828D981731F0828DE80FF11D858D12
:101BB00090E008958FEF9FEF0895FC01918D228DA5
:101BC000892F90E0805C9F4F821B91098F7399272A
:101BD000089580E090E0892B29F00E946509811129
:101BE0000C94000008950895FC01848DDF01A80F76
:101BF000B11DA35ABF4F2C91848D90E001968F7335
:101C00009927848FA689B7892C93A089B1898C9153
:101C100080648C93938D848D981306C00288F38919
:101C2000E02D80818F7D80830895833081F028F4BA
:101C3000813099F08230A1F008958730A9F0883082
:101C4000B9F08430D1F4809180008F7D03C0809101
:101C500080008F7780938000089584B58F7702C0CD
:101C600084B58F7D84BD08958091B0008F7703C0C7
:101C70008091B0008F7D8093B0000895CF93DF9363
:101C800090E0FC01EA57FF4F2491FC01EC55FF4F17
:101C90008491882361F190E0880F991FFC01E8543A
:101CA000FF4FC591D491FC01E656FF4FA591B49129
:101CB000611109C09FB7F894888120958223888399
:101CC000EC912E230BC0623061F49FB7F8943881F9
:101CD000822F809583238883EC912E2B2C939FBF9A
:101CE00006C08FB7F894E8812E2B28838FBFDF9131
:101CF000CF9108953FB7F894809196029091970202
:101D0000A0919802B091990226B5A89B05C02F3FDB
:101D100019F00196A11DB11D3FBFBA2FA92F982F11
:101D20008827820F911DA11DB11DBC01CD0142E08C
:101D3000660F771F881F991F4A95D1F708958F92D4
:101D40009F92AF92BF92CF92DF92EF92FF926B0180
:101D50007C010E947A0E4B015C01C114D104E104A4
:101D6000F104F1F00E947A0EDC01CB018819990987
:101D7000AA09BB09883E9340A105B10570F321E093
:101D8000C21AD108E108F10888EE880E83E0981E97
:101D9000A11CB11CC114D104E104F10419F7DDCF79
:101DA000FF90EF90DF90CF90BF90AF909F908F907B
:101DB00008951F920F920FB60F9211242F933F9305
:101DC0008F939F93AF93BF9380918B0290918C02DE
:101DD000A0918D02B0918E023091950223E0230FE5
:101DE0002D3720F40196A11DB11D05C026E8230F53
:101DF0000296A11DB11D2093950280938B029093B2
:101E00008C02A0938D02B0938E02809196029091E5
:101E10009702A0919802B09199020196A11DB11D5F
:101E20008093960290939702A0939802B0939902A0
:101E3000BF91AF919F918F913F912F910F900FBEC6
:101E40000F901F9018951F920F920FB60F921124AA
:101E50002F933F934F935F936F937F938F939F93B2
:101E6000AF93BF93EF93FF93E0910301F0910401CF
:101E70000995FF91EF91BF91AF919F918F917F91C4
:101E80006F915F914F913F912F910F900FBE0F90E7
:101E90001F9018951F920F920FB60F9211242F9337
:101EA0003F934F935F936F937F938F939F93AF93E2
:101EB000BF93EF93FF93E0910101F0910201099527
:101EC000FF91EF91BF91AF919F918F917F916F9112
:101ED0005F914F913F912F910F900FBE0F901F90E8
:101EE0001895CF92DF92EF92FF920F931F93CF93AB
:101EF000DF93EB017B0124E0E20EF11C8B016C010E
:101F0000C61AD70AC601800F911F0E943B16F8011E
:101F100081938F01EE15FF05A9F7CE01DF91CF91D7
:101F20001F910F91FF90EF90DF90CF900895CF9386
:101F3000DF931092940210929302C0919302D09179
:101F40009402C630D10564F440E050E0BA01CE01FD
:101F50000E94340C2196D0939402C0939302EDCF4B
:101F60000E94750B6AE070E080E090E0DF91CF9115
:101F70000C949F0ECF93DF938091CE010E94D00CE2
:101F8000C0E0D0E040E05FEF60E070E0CE010E9492
:101F9000340C2196C630D105A9F70E94750B68EE66
:101FA00073E080E090E0DF91CF910C949F0ECF938F
:101FB000DF93C0E0D0E040E050E0BA01CE010E94E3
:101FC000340C2196C630D105B1F70E94750B66E935
:101FD00070E080E090E00E949F0EC0E0D0E04FEF04
:101FE00050E060E070E0CE010E94340C2196C630D3
:101FF000D105A9F70E94750B66E970E080E090E0DA
:10200000DF91CF910C949F0EEF92FF920F931F934D
:10201000CF93DF9300D0CDB7DEB780918902909146
:102020008A020FE812E09C012F5832407901C70163
:10203000800F911FF80161918F019A838983CE01EE
:1020400001960E94C000F2E003391F0781F781E387
:1020500091E00E94420A609185027091860280910F
:1020600087029091880240E050E00E94A30A6091AC
:102070008F0270919002809191029091920240E0C3
:1020800050E00E94A30A64EF71E080E090E00E94BB
:102090009F0E0F900F90DF91CF911F910F91FF90A6
:1020A000EF900895CF92DF92EF92FF928091C60158
:1020B0009091C70101979093C7018093C6016091E9
:1020C00081027091820280918302909184020E9429
:1020D000E0139B01AC0160EC71EE84E69CE40E948D
:1020E00038136B017C0160938502709386028093A4
:1020F0008702909388020E94AA137093060160934E
:102100000501A7019601C701B6010E94C71260939D
:102110008F0270939002809391029093920264EFE9
:1021200071E080E090E0FF90EF90DF90CF900C9412
:102130009F0E1092D2011092D10188EE93E0A0E0A0
:10214000B0E08093D3019093D401A093D501B093D4
:10215000D60181E191E09093D0018093CF0185EC8D
:1021600090E09093DC018093DB0184EC90E090930D
:10217000DE018093DD0180EC90E09093E00180939C
:10218000DF0181EC90E09093E2018093E10182EC29
:1021900090E09093E4018093E30186EC90E09093CB
:1021A000E6018093E5011092E8011092E901109296
:1021B000EA011092EB0110926D02109273021092DC
:1021C0007A0210927B0210927C0210927D0281E0D2
:1021D00080937902809376021092770292E0909336
:1021E000780280936C0282E190E090937102809378
:1021F00070020E94091590937502809374020097F3
:1022000061F022E1FC0111922A95E9F786E090E065
:1022100090936F0280936E0208C010927102109228
:10222000700210926F0210926E028CE08093720224
:1022300080916D02882339F061E08CE00E943E0EAF
:102240008CE00E946F09E0EBF0E0E491F0E0EE0F2B
:10225000FF1FE656FF4F8591949190937F028093E4
:102260007E02E2E9F0E0E491E09380020895789440
:1022700084B5826084BD84B5816084BD85B582608B
:1022800085BD85B5816085BD80916E00816080933C
:102290006E001092810080918100826080938100A5
:1022A00080918100816080938100809180008160B5
:1022B000809380008091B10084608093B100809110
:1022C000B00081608093B00080917A008460809338
:1022D0007A0080917A00826080937A0080917A00FF
:1022E000816080937A0080917A00806880937A0080
:1022F0001092C100E091DF01F091E00182E0808363
:10230000E091DB01F091DC011082E091DD01F091C0
:10231000DE018FEC80831092E701E091E301F09100
:10232000E40186E08083E091E101F091E2018081A7
:1023300080618083E091E101F091E2018081886019
:102340008083E091E101F091E201808180688083E7
:10235000E091E101F091E20180818F7D80838091A5
:10236000720287FD07C061E00E943E0E80917202FA
:102370000E946F0981E080936D020E94970F60E0D8
:1023800082E00E943E0E62E083E00E943E0E8DE8F5
:1023900090E0909302018093010180916900836035
:1023A00080936900E89A0E947A0E6093C801709346
:1023B000C9018093CA019093CB011092C70110927A
:1023C000C60161E08CE00E943E0E0E94020A8091EC
:1023D000CE01811103C084E68093CE018091CE01AD
:1023E0000E94D00C0E94750B6AE070E080E090E0E3
:1023F0000E949F0E0E940B0A64E670E080E090E06D
:102400000E949F0E8BE591E00E94540A8091CC01BE
:102410009091CD010E94110D8091CC019091CD0140
:102420000197039708F442C00E943F0D8C019093DE
:10243000C5018093C401C0E0D0E040E050E0BA01A3
:10244000CE010E94340C2196C630D105B1F70E940E
:10245000750B66E970E080E090E00E949F0EC0E09E
:10246000D0E040E05FEF60E070E0CE010E94340C0D
:102470002196C630D105A9F70E94750B66E970E078
:1024800080E090E00E949F0E0130110569F20E94E9
:102490003F0D9093C5018093C4018091C401909138
:1024A000C501892B19F40E94E000F7CF0E943B057B
:1024B0000E94E90DFBCF8091740290917502009704
:1024C00011F00E949E158091720287FD03C060E0AA
:1024D0000C943E0E0895AA1BBB1B51E107C0AA1F16
:1024E000BB1FA617B70710F0A61BB70B881F991FB5
:1024F0005A95A9F780959095BC01CD010895A1E268
:102500001A2EAA1BBB1BFD010DC0AA1FBB1FEE1F6D
:10251000FF1FA217B307E407F50720F0A21BB30BB8
:10252000E40BF50B661F771F881F991F1A9469F734
:1025300060957095809590959B01AC01BD01CF0190
:102540000895052E97FB1EF400940E94B81257FDC3
:1025500007D00E947F1207FC03D04EF40C94B812EF
:1025600050954095309521953F4F4F4F5F4F0895BF
:1025700090958095709561957F4F8F4F9F4F0895EF
:10258000EE0FFF1F0590F491E02D09945058BB27E2
:10259000AA270E94DE120C9458140E944A1438F0A4
:1025A0000E94511420F039F49F3F19F426F40C9442
:1025B00047140EF4E095E7FB0C944114E92F0E94B8
:1025C000691458F3BA17620773078407950720F058
:1025D00079F4A6F50C948B140EF4E0950B2EBA2F1B
:1025E000A02D0B01B90190010C01CA01A001112419
:1025F000FF27591B99F0593F50F4503E68F11A16C5
:10260000F040A22F232F342F4427585FF3CF469555
:1026100037952795A795F0405395C9F77EF41F1677
:10262000BA0B620B730B840BBAF09150A1F0FF0F41
:10263000BB1F661F771F881FC2F70EC0BA0F621F2D
:10264000731F841F48F4879577956795B795F7951D
:102650009E3F08F0B0CF9395880F08F09927EE0FB2
:102660009795879508950E941D1408F481E00895B8
:102670000E944C130C9458140E94511458F00E945C
:102680004A1440F029F45F3F29F00C944114511191
:102690000C948C140C9447140E94691468F39923C9
:1026A000B1F3552391F3951B550BBB27AA2762174E
:1026B0007307840738F09F5F5F4F220F331F441F5B
:1026C000AA1FA9F335D00E2E3AF0E0E832D091508F
:1026D0005040E695001CCAF72BD0FE2F29D0660F7C
:1026E000771F881FBB1F261737074807AB07B0E8BF
:1026F00009F0BB0B802DBF01FF2793585F4F3AF0C5
:102700009E3F510578F00C9441140C948C145F3F5B
:10271000E4F3983ED4F3869577956795B795F7954A
:102720009F5FC9F7880F911D9695879597F9089532
:10273000E1E0660F771F881FBB1F621773078407CE
:10274000BA0720F0621B730B840BBA0BEE1F88F7DD
:10275000E09508950E94B1136894B1110C948C1403
:1027600008950E94711488F09F5798F0B92F992707
:10277000B751B0F0E1F0660F771F881F991F1AF06C
:10278000BA95C9F714C0B13091F00E948B14B1E032
:1027900008950C948B14672F782F8827B85F39F031
:1027A000B93FCCF3869577956795B395D9F73EF405
:1027B00090958095709561957F4F8F4F9F4F0895AD
:1027C000E89409C097FB3EF49095809570956195CB
:1027D0007F4F8F4F9F4F9923A9F0F92F96E9BB2781
:1027E0009395F695879577956795B795F111F8CFFD
:1027F000FAF4BB0F11F460FF1BC06F5F7F4F8F4F68
:102800009F4F16C0882311F096E911C0772321F05D
:102810009EE8872F762F05C0662371F096E8862FF5
:1028200070E060E02AF09A95660F771F881FDAF74C
:10283000880F9695879597F90895990F0008550F79
:10284000AA0BE0E8FEEF16161706E807F907C0F036
:1028500012161306E407F50798F0621B730B840B3E
:10286000950B39F40A2661F0232B242B252B21F418
:1028700008950A2609F4A140A6958FEF811D811DB8
:10288000089597F99F6780E870E060E008959FEFF2
:1028900080EC089500240A941616170618060906F7
:1028A000089500240A9412161306140605060895C6
:1028B000092E0394000C11F4882352F0BB0F40F44E
:1028C000BF2B11F460FF04C06F5F7F4F8F4F9F4F8E
:1028D000089557FD9058440F551F59F05F3F71F010
:1028E0004795880F97FB991F61F09F3F79F0879577
:1028F0000895121613061406551FF2CF4695F1DF00
:1029000008C0161617061806991FF1CF869571058F
:10291000610508940895E894BB2766277727CB01C3
:1029200097F908950E941D1408F48FEF08950E94EE
:10293000AA140C9458140E944A1438F00E9451149E
:1029400020F0952311F00C9441140C944714112499
:102950000C948C140E94691470F3959FC1F3950F29
:1029600050E0551F629FF001729FBB27F00DB11D13
:10297000639FAA27F00DB11DAA1F649F6627B00DA3
:10298000A11D661F829F2227B00DA11D621F739F8C
:10299000B00DA11D621F839FA00D611D221F749F9A
:1029A0003327A00D611D231F849F600D211D822FE1
:1029B000762F6A2F11249F5750409AF0F1F0882308
:1029C0004AF0EE0FFF1FBB1F661F771F881F915035
:1029D0005040A9F79E3F510580F00C9441140C948F
:1029E0008C145F3FE4F3983ED4F386957795679512
:1029F000B795F795E7959F5FC1F7FE2B880F911D5F
:102A00009695879597F908950E941D14880B990B48
:102A10000895CF93DF938230910510F482E090E027
:102A2000E0919C02F0919D0220E030E0C0E0D0E017
:102A3000309711F14081518148175907C0F048176C
:102A4000590761F482819381209719F09B838A83CF
:102A50002BC090939D0280939C0226C021153105C6
:102A600019F04217530718F49A01BE01DF01EF0174
:102A70000280F381E02DDCCF2115310509F1281BFF
:102A8000390B2430310590F412968D919C91139757
:102A90006115710521F0FB019383828304C090933B
:102AA0009D0280939C02FD01329644C0FD01E20F1D
:102AB000F31F81939193225031092D933C933AC097
:102AC00020919A0230919B02232B41F4209109011D
:102AD00030910A0130939B0220939A0220910701C2
:102AE000309108012115310541F42DB73EB74091D1
:102AF0000B0150910C01241B350BE0919A02F091CF
:102B00009B02E217F307A0F42E1B3F0B281739078F
:102B100078F0AC014E5F5F4F2417350748F04E0F39
:102B20005F1F50939B0240939A028193919302C03E
:102B3000E0E0F0E0CF01DF91CF9108950F931F9374
:102B4000CF93DF93009709F48CC0FC013297138276
:102B5000128200919C0210919D020115110581F4D1
:102B600020813181820F931F20919A0230919B0224
:102B70002817390779F5F0939B02E0939A0271C008
:102B8000D80140E050E0AE17BF0750F412962D91E7
:102B90003C911397AD012115310509F1D901F3CF0E
:102BA0009D01DA013383228360817181860F971F33
:102BB0008217930769F4EC0128813981260F371FAA
:102BC0002E5F3F4F318320838A819B819383828351
:102BD000452B29F4F0939D02E0939C0242C013968A
:102BE000FC93EE931297ED01499159919E01240FA8
:102BF000351FE217F30771F480819181840F951FCF
:102C0000029611969C938E938281938113969C9346
:102C10008E931297E0E0F0E0D80112968D919C918E
:102C20001397009719F0F8018C01F6CF8D919C91C4
:102C300098012E5F3F4F820F931F20919A0230918F
:102C40009B022817390769F4309729F410929D02E6
:102C500010929C0202C01382128210939B02009376
:102C60009A02DF91CF911F910F91089581E090E03A
:102C7000F8940C945116F999FECF92BD81BDF89A43
:102C8000992780B50895262FF999FECF1FBA92BDD6
:102C900081BD20BD0FB6F894FA9AF99A0FBE01963D
:102CA000089510E0C2E6D0E004C0FE010E94C01208
:0C2CB0002196C336D107C9F7F894FFCF76
:102CBC0001F30DF30DB80B00009E02800000000024
:102CCC000099093A09DD0DBB0DCF0DE0096B657953
:102CDC002070726573730045787472616C6F6E67E7
:102CEC00000D0A0063686F69785F73686966742009
:102CFC003A006D656469756D0073686F7274006E6F
:102D0C00616E00696E66006F7666006C6173745F4D
:102D1C0063686F69785F7368696674203A206465CC
:042D2C006275740058
:00000001FF
